{
  "contractName": "GovTrack",
  "abi": [
    {
      "inputs": [
        {
          "internalType": "address",
          "name": "oracleAddress",
          "type": "address"
        }
      ],
      "stateMutability": "nonpayable",
      "type": "constructor"
    },
    {
      "anonymous": false,
      "inputs": [
        {
          "indexed": false,
          "internalType": "address",
          "name": "id",
          "type": "address"
        },
        {
          "indexed": false,
          "internalType": "string",
          "name": "name",
          "type": "string"
        },
        {
          "indexed": false,
          "internalType": "string",
          "name": "phoneNumber",
          "type": "string"
        },
        {
          "indexed": false,
          "internalType": "string",
          "name": "emailAddress",
          "type": "string"
        },
        {
          "indexed": false,
          "internalType": "string",
          "name": "physicalAddress",
          "type": "string"
        }
      ],
      "name": "NewApplicant",
      "type": "event"
    },
    {
      "anonymous": false,
      "inputs": [
        {
          "indexed": false,
          "internalType": "uint256",
          "name": "id",
          "type": "uint256"
        },
        {
          "indexed": false,
          "internalType": "address",
          "name": "grantor",
          "type": "address"
        },
        {
          "indexed": false,
          "internalType": "string",
          "name": "name",
          "type": "string"
        },
        {
          "indexed": false,
          "internalType": "string",
          "name": "description",
          "type": "string"
        },
        {
          "indexed": false,
          "internalType": "uint256",
          "name": "amountInWei",
          "type": "uint256"
        },
        {
          "indexed": false,
          "internalType": "uint256",
          "name": "createdAt",
          "type": "uint256"
        },
        {
          "indexed": false,
          "internalType": "uint256",
          "name": "deadlineTimeStamp",
          "type": "uint256"
        },
        {
          "indexed": false,
          "internalType": "enum GovTrack.GrantStatus",
          "name": "grantStatus",
          "type": "uint8"
        }
      ],
      "name": "NewGrant",
      "type": "event"
    },
    {
      "anonymous": false,
      "inputs": [
        {
          "indexed": false,
          "internalType": "uint256",
          "name": "id",
          "type": "uint256"
        },
        {
          "indexed": false,
          "internalType": "address",
          "name": "project",
          "type": "address"
        },
        {
          "indexed": false,
          "internalType": "uint256",
          "name": "grantId",
          "type": "uint256"
        },
        {
          "indexed": false,
          "internalType": "enum GovTrack.RequestStatus",
          "name": "status",
          "type": "uint8"
        }
      ],
      "name": "NewGrantRequest",
      "type": "event"
    },
    {
      "anonymous": false,
      "inputs": [
        {
          "indexed": false,
          "internalType": "address",
          "name": "id",
          "type": "address"
        },
        {
          "indexed": false,
          "internalType": "string",
          "name": "agencyName",
          "type": "string"
        },
        {
          "indexed": false,
          "internalType": "string",
          "name": "agencyCode",
          "type": "string"
        }
      ],
      "name": "NewGrantor",
      "type": "event"
    },
    {
      "anonymous": false,
      "inputs": [
        {
          "indexed": false,
          "internalType": "address",
          "name": "id",
          "type": "address"
        },
        {
          "indexed": false,
          "internalType": "address",
          "name": "owner",
          "type": "address"
        },
        {
          "indexed": false,
          "internalType": "string",
          "name": "name",
          "type": "string"
        },
        {
          "indexed": false,
          "internalType": "string",
          "name": "description",
          "type": "string"
        }
      ],
      "name": "NewProject",
      "type": "event"
    },
    {
      "anonymous": false,
      "inputs": [
        {
          "indexed": false,
          "internalType": "uint256",
          "name": "id",
          "type": "uint256"
        },
        {
          "indexed": false,
          "internalType": "enum GovTrack.GrantStatus",
          "name": "status",
          "type": "uint8"
        }
      ],
      "name": "UpdateGrant",
      "type": "event"
    },
    {
      "anonymous": false,
      "inputs": [
        {
          "indexed": false,
          "internalType": "uint256",
          "name": "id",
          "type": "uint256"
        },
        {
          "indexed": false,
          "internalType": "enum GovTrack.RequestStatus",
          "name": "status",
          "type": "uint8"
        }
      ],
      "name": "UpdateGrantRequest",
      "type": "event"
    },
    {
      "inputs": [
        {
          "internalType": "address",
          "name": "",
          "type": "address"
        }
      ],
      "name": "addressToApplicant",
      "outputs": [
        {
          "internalType": "address",
          "name": "id",
          "type": "address"
        },
        {
          "internalType": "string",
          "name": "name",
          "type": "string"
        },
        {
          "internalType": "string",
          "name": "phoneNumber",
          "type": "string"
        },
        {
          "internalType": "string",
          "name": "emailAddress",
          "type": "string"
        },
        {
          "internalType": "string",
          "name": "physicalAddress",
          "type": "string"
        },
        {
          "internalType": "bool",
          "name": "isRegistered",
          "type": "bool"
        }
      ],
      "stateMutability": "view",
      "type": "function",
      "constant": true
    },
    {
      "inputs": [
        {
          "internalType": "address",
          "name": "",
          "type": "address"
        }
      ],
      "name": "addressToGrantor",
      "outputs": [
        {
          "internalType": "address",
          "name": "id",
          "type": "address"
        },
        {
          "internalType": "string",
          "name": "agencyName",
          "type": "string"
        },
        {
          "internalType": "string",
          "name": "agencyCode",
          "type": "string"
        },
        {
          "internalType": "bool",
          "name": "isRegistered",
          "type": "bool"
        }
      ],
      "stateMutability": "view",
      "type": "function",
      "constant": true
    },
    {
      "inputs": [
        {
          "internalType": "address",
          "name": "",
          "type": "address"
        }
      ],
      "name": "addressToProject",
      "outputs": [
        {
          "internalType": "address",
          "name": "id",
          "type": "address"
        },
        {
          "internalType": "address",
          "name": "owner",
          "type": "address"
        },
        {
          "internalType": "string",
          "name": "name",
          "type": "string"
        },
        {
          "internalType": "string",
          "name": "description",
          "type": "string"
        },
        {
          "internalType": "bool",
          "name": "isRegistered",
          "type": "bool"
        }
      ],
      "stateMutability": "view",
      "type": "function",
      "constant": true
    },
    {
      "inputs": [
        {
          "internalType": "uint256",
          "name": "",
          "type": "uint256"
        }
      ],
      "name": "grants",
      "outputs": [
        {
          "internalType": "uint256",
          "name": "id",
          "type": "uint256"
        },
        {
          "internalType": "address",
          "name": "grantor",
          "type": "address"
        },
        {
          "internalType": "string",
          "name": "name",
          "type": "string"
        },
        {
          "internalType": "string",
          "name": "description",
          "type": "string"
        },
        {
          "internalType": "uint256",
          "name": "amountInWei",
          "type": "uint256"
        },
        {
          "internalType": "uint256",
          "name": "createdAt",
          "type": "uint256"
        },
        {
          "internalType": "uint256",
          "name": "deadlineTimestamp",
          "type": "uint256"
        },
        {
          "internalType": "enum GovTrack.GrantStatus",
          "name": "status",
          "type": "uint8"
        },
        {
          "internalType": "bool",
          "name": "isRegistered",
          "type": "bool"
        }
      ],
      "stateMutability": "view",
      "type": "function",
      "constant": true
    },
    {
      "inputs": [
        {
          "internalType": "uint256",
          "name": "",
          "type": "uint256"
        }
      ],
      "name": "requests",
      "outputs": [
        {
          "internalType": "uint256",
          "name": "id",
          "type": "uint256"
        },
        {
          "internalType": "address payable",
          "name": "project",
          "type": "address"
        },
        {
          "internalType": "uint256",
          "name": "grantId",
          "type": "uint256"
        },
        {
          "internalType": "enum GovTrack.RequestStatus",
          "name": "status",
          "type": "uint8"
        }
      ],
      "stateMutability": "view",
      "type": "function",
      "constant": true
    },
    {
      "inputs": [
        {
          "internalType": "string",
          "name": "_name",
          "type": "string"
        },
        {
          "internalType": "string",
          "name": "_phoneNumber",
          "type": "string"
        },
        {
          "internalType": "string",
          "name": "_emailAddress",
          "type": "string"
        },
        {
          "internalType": "string",
          "name": "_physicalAddress",
          "type": "string"
        }
      ],
      "name": "registerAsApplicant",
      "outputs": [],
      "stateMutability": "nonpayable",
      "type": "function"
    },
    {
      "inputs": [
        {
          "internalType": "string",
          "name": "_agencyName",
          "type": "string"
        },
        {
          "internalType": "string",
          "name": "_agencyCode",
          "type": "string"
        }
      ],
      "name": "registerAsGrantor",
      "outputs": [],
      "stateMutability": "nonpayable",
      "type": "function"
    },
    {
      "inputs": [
        {
          "internalType": "address payable",
          "name": "_project",
          "type": "address"
        },
        {
          "internalType": "string",
          "name": "_name",
          "type": "string"
        },
        {
          "internalType": "string",
          "name": "_description",
          "type": "string"
        }
      ],
      "name": "createProject",
      "outputs": [],
      "stateMutability": "nonpayable",
      "type": "function"
    },
    {
      "inputs": [
        {
          "internalType": "string",
          "name": "_name",
          "type": "string"
        },
        {
          "internalType": "string",
          "name": "_description",
          "type": "string"
        },
        {
          "internalType": "uint256",
          "name": "_amountInUsd",
          "type": "uint256"
        },
        {
          "internalType": "uint256",
          "name": "_deadlineTimestamp",
          "type": "uint256"
        }
      ],
      "name": "createGrant",
      "outputs": [],
      "stateMutability": "payable",
      "type": "function",
      "payable": true
    },
    {
      "inputs": [
        {
          "internalType": "address payable",
          "name": "_project",
          "type": "address"
        },
        {
          "internalType": "uint256",
          "name": "_grantId",
          "type": "uint256"
        }
      ],
      "name": "requestGrant",
      "outputs": [],
      "stateMutability": "nonpayable",
      "type": "function"
    },
    {
      "inputs": [
        {
          "internalType": "uint256",
          "name": "_requestId",
          "type": "uint256"
        }
      ],
      "name": "approveRequest",
      "outputs": [],
      "stateMutability": "nonpayable",
      "type": "function"
    },
    {
      "inputs": [],
      "name": "getUsdPerEth",
      "outputs": [
        {
          "internalType": "uint256",
          "name": "",
          "type": "uint256"
        }
      ],
      "stateMutability": "view",
      "type": "function",
      "constant": true
    },
    {
      "inputs": [
        {
          "internalType": "uint256",
          "name": "_amountInUsd",
          "type": "uint256"
        }
      ],
      "name": "usdToWei",
      "outputs": [
        {
          "internalType": "uint256",
          "name": "",
          "type": "uint256"
        }
      ],
      "stateMutability": "view",
      "type": "function",
      "constant": true
    }
  ],
  "bytecode": "0x60806040526305f5e100600155670de0b6b3a76400006002553480156200002557600080fd5b5060405162003a8738038062003a8783398181016040528101906200004b9190620000a9565b806000806101000a81548173ffffffffffffffffffffffffffffffffffffffff021916908373ffffffffffffffffffffffffffffffffffffffff1602179055505062000123565b600081519050620000a38162000109565b92915050565b600060208284031215620000bc57600080fd5b6000620000cc8482850162000092565b91505092915050565b6000620000e282620000e9565b9050919050565b600073ffffffffffffffffffffffffffffffffffffffff82169050919050565b6200011481620000d5565b81146200012057600080fd5b50565b61395480620001336000396000f3fe6080604052600436106100c25760003560e01c8063a6a861301161007f578063d7d1bbdb11610059578063d7d1bbdb146102bc578063e7768f33146102e5578063fcbc28b81461030e578063fdb7ddd114610337576100c2565b8063a6a861301461023a578063a8f385db14610277578063c3af6aa4146102a0576100c2565b80630c0debea146100c75780630fa5e1211461010c5780631864ccd31461014e57806359d3f8d11461018e5780635bc4675c146101b957806381d12c58146101fa575b600080fd5b3480156100d357600080fd5b506100ee60048036038101906100e9919061299b565b610360565b60405161010399989796959493929190613127565b60405180910390f35b34801561011857600080fd5b50610133600480360381019061012e91906126f5565b610508565b60405161014596959493929190612e19565b60405180910390f35b34801561015a57600080fd5b50610175600480360381019061017091906126f5565b610791565b6040516101859493929190612d57565b60405180910390f35b34801561019a57600080fd5b506101a36108fe565b6040516101b09190612ff6565b60405180910390f35b3480156101c557600080fd5b506101e060048036038101906101db91906126f5565b6109ac565b6040516101f1959493929190612cb1565b60405180910390f35b34801561020657600080fd5b50610221600480360381019061021c919061299b565b610b3f565b6040516102319493929190613011565b60405180910390f35b34801561024657600080fd5b50610261600480360381019061025c919061299b565b610bac565b60405161026e9190612ff6565b60405180910390f35b34801561028357600080fd5b5061029e6004803603810190610299919061271e565b610be7565b005b6102ba60048036038101906102b59190612908565b610f71565b005b3480156102c857600080fd5b506102e360048036038101906102de919061299b565b6112f9565b005b3480156102f157600080fd5b5061030c600480360381019061030791906127d9565b611777565b005b34801561031a57600080fd5b5061033560048036038101906103309190612845565b611a9b565b005b34801561034357600080fd5b5061035e6004803603810190610359919061279d565b611e13565b005b6007818154811061037057600080fd5b90600052602060002090600802016000915090508060000154908060010160009054906101000a900473ffffffffffffffffffffffffffffffffffffffff16908060020180546103bf906134a3565b80601f01602080910402602001604051908101604052809291908181526020018280546103eb906134a3565b80156104385780601f1061040d57610100808354040283529160200191610438565b820191906000526020600020905b81548152906001019060200180831161041b57829003601f168201915b50505050509080600301805461044d906134a3565b80601f0160208091040260200160405190810160405280929190818152602001828054610479906134a3565b80156104c65780601f1061049b576101008083540402835291602001916104c6565b820191906000526020600020905b8154815290600101906020018083116104a957829003601f168201915b5050505050908060040154908060050154908060060154908060070160009054906101000a900460ff16908060070160019054906101000a900460ff16905089565b60036020528060005260406000206000915090508060000160009054906101000a900473ffffffffffffffffffffffffffffffffffffffff1690806001018054610551906134a3565b80601f016020809104026020016040519081016040528092919081815260200182805461057d906134a3565b80156105ca5780601f1061059f576101008083540402835291602001916105ca565b820191906000526020600020905b8154815290600101906020018083116105ad57829003601f168201915b5050505050908060020180546105df906134a3565b80601f016020809104026020016040519081016040528092919081815260200182805461060b906134a3565b80156106585780601f1061062d57610100808354040283529160200191610658565b820191906000526020600020905b81548152906001019060200180831161063b57829003601f168201915b50505050509080600301805461066d906134a3565b80601f0160208091040260200160405190810160405280929190818152602001828054610699906134a3565b80156106e65780601f106106bb576101008083540402835291602001916106e6565b820191906000526020600020905b8154815290600101906020018083116106c957829003601f168201915b5050505050908060040180546106fb906134a3565b80601f0160208091040260200160405190810160405280929190818152602001828054610727906134a3565b80156107745780601f1061074957610100808354040283529160200191610774565b820191906000526020600020905b81548152906001019060200180831161075757829003601f168201915b5050505050908060050160009054906101000a900460ff16905086565b60056020528060005260406000206000915090508060000160009054906101000a900473ffffffffffffffffffffffffffffffffffffffff16908060010180546107da906134a3565b80601f0160208091040260200160405190810160405280929190818152602001828054610806906134a3565b80156108535780601f1061082857610100808354040283529160200191610853565b820191906000526020600020905b81548152906001019060200180831161083657829003601f168201915b505050505090806002018054610868906134a3565b80601f0160208091040260200160405190810160405280929190818152602001828054610894906134a3565b80156108e15780601f106108b6576101008083540402835291602001916108e1565b820191906000526020600020905b8154815290600101906020018083116108c457829003601f168201915b5050505050908060030160009054906101000a900460ff16905084565b60008060008054906101000a900473ffffffffffffffffffffffffffffffffffffffff1673ffffffffffffffffffffffffffffffffffffffff1663feaf968c6040518163ffffffff1660e01b815260040160a06040518083038186803b15801561096757600080fd5b505afa15801561097b573d6000803e3d6000fd5b505050506040513d601f19601f8201168201806040525081019061099f91906129c4565b5050509150508091505090565b60046020528060005260406000206000915090508060000160009054906101000a900473ffffffffffffffffffffffffffffffffffffffff16908060010160009054906101000a900473ffffffffffffffffffffffffffffffffffffffff1690806002018054610a1b906134a3565b80601f0160208091040260200160405190810160405280929190818152602001828054610a47906134a3565b8015610a945780601f10610a6957610100808354040283529160200191610a94565b820191906000526020600020905b815481529060010190602001808311610a7757829003601f168201915b505050505090806003018054610aa9906134a3565b80601f0160208091040260200160405190810160405280929190818152602001828054610ad5906134a3565b8015610b225780601f10610af757610100808354040283529160200191610b22565b820191906000526020600020905b815481529060010190602001808311610b0557829003601f168201915b5050505050908060040160009054906101000a900460ff16905085565b600a8181548110610b4f57600080fd5b90600052602060002090600402016000915090508060000154908060010160009054906101000a900473ffffffffffffffffffffffffffffffffffffffff16908060020154908060030160009054906101000a900460ff16905084565b600080610bb76108fe565b90508060025460015485610bcb919061330d565b610bd5919061330d565b610bdf91906132dc565b915050919050565b82600360008273ffffffffffffffffffffffffffffffffffffffff1673ffffffffffffffffffffffffffffffffffffffff16815260200190815260200160002060050160009054906101000a900460ff1615610c78576040517f08c379a0000000000000000000000000000000000000000000000000000000008152600401610c6f90612fb6565b60405180910390fd5b600560008273ffffffffffffffffffffffffffffffffffffffff1673ffffffffffffffffffffffffffffffffffffffff16815260200190815260200160002060030160009054906101000a900460ff1615610d08576040517f08c379a0000000000000000000000000000000000000000000000000000000008152600401610cff90612fb6565b60405180910390fd5b600460008273ffffffffffffffffffffffffffffffffffffffff1673ffffffffffffffffffffffffffffffffffffffff16815260200190815260200160002060040160009054906101000a900460ff1615610d98576040517f08c379a0000000000000000000000000000000000000000000000000000000008152600401610d8f90612fb6565b60405180910390fd5b60006040518060a001604052808673ffffffffffffffffffffffffffffffffffffffff1681526020013373ffffffffffffffffffffffffffffffffffffffff16815260200185815260200184815260200160011515815250905080600460008773ffffffffffffffffffffffffffffffffffffffff1673ffffffffffffffffffffffffffffffffffffffff16815260200190815260200160002060008201518160000160006101000a81548173ffffffffffffffffffffffffffffffffffffffff021916908373ffffffffffffffffffffffffffffffffffffffff16021790555060208201518160010160006101000a81548173ffffffffffffffffffffffffffffffffffffffff021916908373ffffffffffffffffffffffffffffffffffffffff1602179055506040820151816002019080519060200190610edc9291906124df565b506060820151816003019080519060200190610ef99291906124df565b5060808201518160040160006101000a81548160ff0219169083151502179055509050507f4fbc00ba4fdc53c39bae49660adeb175c0c153d5c23a6ece0b13b24053ffcd758160000151826020015183604001518460600151604051610f629493929190612c5e565b60405180910390a15050505050565b600560003373ffffffffffffffffffffffffffffffffffffffff1673ffffffffffffffffffffffffffffffffffffffff16815260200190815260200160002060030160009054906101000a900460ff16611000576040517f08c379a0000000000000000000000000000000000000000000000000000000008152600401610ff790612f16565b60405180910390fd5b428111611042576040517f08c379a000000000000000000000000000000000000000000000000000000000815260040161103990612ef6565b60405180910390fd5b61104b82610bac565b34101561108d576040517f08c379a000000000000000000000000000000000000000000000000000000000815260040161108490612f56565b60405180910390fd5b600060405180610120016040528060065481526020013373ffffffffffffffffffffffffffffffffffffffff16815260200186815260200185815260200134815260200142815260200183815260200160006001811115611117577f4e487b7100000000000000000000000000000000000000000000000000000000600052602160045260246000fd5b81526020016001151581525090506001600660008282546111389190613286565b9250508190555060078190806001815401808255809150506001900390600052602060002090600802016000909190919091506000820151816000015560208201518160010160006101000a81548173ffffffffffffffffffffffffffffffffffffffff021916908373ffffffffffffffffffffffffffffffffffffffff16021790555060408201518160020190805190602001906111d89291906124df565b5060608201518160030190805190602001906111f59291906124df565b506080820151816004015560a0820151816005015560c0820151816006015560e08201518160070160006101000a81548160ff02191690836001811115611265577f4e487b7100000000000000000000000000000000000000000000000000000000600052602160045260246000fd5b02179055506101008201518160070160016101000a81548160ff02191690831515021790555050507fad6ae3566435e82d7a97167c373c5a71d056878867970d1fd975ca3a89e0ce4d816000015182602001518360400151846060015185608001518660a001518760c001518860e001516040516112ea98979695949392919061309b565b60405180910390a15050505050565b6000600a8281548110611335577f4e487b7100000000000000000000000000000000000000000000000000000000600052603260045260246000fd5b9060005260206000209060040201905060006007600a8481548110611383577f4e487b7100000000000000000000000000000000000000000000000000000000600052603260045260246000fd5b906000526020600020906004020160020154815481106113cc577f4e487b7100000000000000000000000000000000000000000000000000000000600052603260045260246000fd5b9060005260206000209060080201905060006001811115611416577f4e487b7100000000000000000000000000000000000000000000000000000000600052602160045260246000fd5b8260030160009054906101000a900460ff166001811115611460577f4e487b7100000000000000000000000000000000000000000000000000000000600052602160045260246000fd5b146114a0576040517f08c379a000000000000000000000000000000000000000000000000000000000815260040161149790612f76565b60405180910390fd5b600560003373ffffffffffffffffffffffffffffffffffffffff1673ffffffffffffffffffffffffffffffffffffffff16815260200190815260200160002060030160009054906101000a900460ff1661152f576040517f08c379a000000000000000000000000000000000000000000000000000000000815260040161152690612f16565b60405180910390fd5b3373ffffffffffffffffffffffffffffffffffffffff168160010160009054906101000a900473ffffffffffffffffffffffffffffffffffffffff1673ffffffffffffffffffffffffffffffffffffffff16146115c1576040517f08c379a00000000000000000000000000000000000000000000000000000000081526004016115b890612e96565b60405180910390fd5b8160010160009054906101000a900473ffffffffffffffffffffffffffffffffffffffff1673ffffffffffffffffffffffffffffffffffffffff166108fc82600401549081150290604051600060405180830381858888f1935050505015801561162f573d6000803e3d6000fd5b5060018260030160006101000a81548160ff0219169083600181111561167e577f4e487b7100000000000000000000000000000000000000000000000000000000600052602160045260246000fd5b021790555060018160070160006101000a81548160ff021916908360018111156116d1577f4e487b7100000000000000000000000000000000000000000000000000000000600052602160045260246000fd5b02179055507fa9220f2c3608195a2b09d4530691a1918f9be4c9c5e41d7d0971365ed7a9d9d882600001548360030160009054906101000a900460ff1660405161171c9291906131eb565b60405180910390a17fff4074d43586288ec8799cf06f1425275d5a5515761debea96cd088e841a2cc681600001548260070160009054906101000a900460ff1660405161176a9291906131c2565b60405180910390a1505050565b33600360008273ffffffffffffffffffffffffffffffffffffffff1673ffffffffffffffffffffffffffffffffffffffff16815260200190815260200160002060050160009054906101000a900460ff1615611808576040517f08c379a00000000000000000000000000000000000000000000000000000000081526004016117ff90612fb6565b60405180910390fd5b600560008273ffffffffffffffffffffffffffffffffffffffff1673ffffffffffffffffffffffffffffffffffffffff16815260200190815260200160002060030160009054906101000a900460ff1615611898576040517f08c379a000000000000000000000000000000000000000000000000000000000815260040161188f90612fb6565b60405180910390fd5b600460008273ffffffffffffffffffffffffffffffffffffffff1673ffffffffffffffffffffffffffffffffffffffff16815260200190815260200160002060040160009054906101000a900460ff1615611928576040517f08c379a000000000000000000000000000000000000000000000000000000000815260040161191f90612fb6565b60405180910390fd5b600060405180608001604052803373ffffffffffffffffffffffffffffffffffffffff1681526020018581526020018481526020016001151581525090508060056000836000015173ffffffffffffffffffffffffffffffffffffffff1673ffffffffffffffffffffffffffffffffffffffff16815260200190815260200160002060008201518160000160006101000a81548173ffffffffffffffffffffffffffffffffffffffff021916908373ffffffffffffffffffffffffffffffffffffffff1602179055506020820151816001019080519060200190611a0d9291906124df565b506040820151816002019080519060200190611a2a9291906124df565b5060608201518160030160006101000a81548160ff0219169083151502179055509050507f421a4ec69e0ad4ef422a36004e04c3e9557f3303f0d3e5ea486c85eea01043e8816000015182602001518360400151604051611a8d93929190612d12565b60405180910390a150505050565b33600360008273ffffffffffffffffffffffffffffffffffffffff1673ffffffffffffffffffffffffffffffffffffffff16815260200190815260200160002060050160009054906101000a900460ff1615611b2c576040517f08c379a0000000000000000000000000000000000000000000000000000000008152600401611b2390612fb6565b60405180910390fd5b600560008273ffffffffffffffffffffffffffffffffffffffff1673ffffffffffffffffffffffffffffffffffffffff16815260200190815260200160002060030160009054906101000a900460ff1615611bbc576040517f08c379a0000000000000000000000000000000000000000000000000000000008152600401611bb390612fb6565b60405180910390fd5b600460008273ffffffffffffffffffffffffffffffffffffffff1673ffffffffffffffffffffffffffffffffffffffff16815260200190815260200160002060040160009054906101000a900460ff1615611c4c576040517f08c379a0000000000000000000000000000000000000000000000000000000008152600401611c4390612fb6565b60405180910390fd5b60006040518060c001604052803373ffffffffffffffffffffffffffffffffffffffff1681526020018781526020018681526020018581526020018481526020016001151581525090508060036000836000015173ffffffffffffffffffffffffffffffffffffffff1673ffffffffffffffffffffffffffffffffffffffff16815260200190815260200160002060008201518160000160006101000a81548173ffffffffffffffffffffffffffffffffffffffff021916908373ffffffffffffffffffffffffffffffffffffffff1602179055506020820151816001019080519060200190611d3d9291906124df565b506040820151816002019080519060200190611d5a9291906124df565b506060820151816003019080519060200190611d779291906124df565b506080820151816004019080519060200190611d949291906124df565b5060a08201518160050160006101000a81548160ff0219169083151502179055509050507fd7550a57da6d55f4a325c2ae579daf0913d1227ab339aff2041fbe38279e3ff981600001518260200151836040015184606001518560800151604051611e03959493929190612daa565b60405180910390a1505050505050565b60078181548110611e4d577f4e487b7100000000000000000000000000000000000000000000000000000000600052603260045260246000fd5b906000526020600020906008020160070160019054906101000a900460ff16611eab576040517f08c379a0000000000000000000000000000000000000000000000000000000008152600401611ea290612fd6565b60405180910390fd5b60078181548110611ee5577f4e487b7100000000000000000000000000000000000000000000000000000000600052603260045260246000fd5b9060005260206000209060080201600601544210611f38576040517f08c379a0000000000000000000000000000000000000000000000000000000008152600401611f2f90612f36565b60405180910390fd5b600360003373ffffffffffffffffffffffffffffffffffffffff1673ffffffffffffffffffffffffffffffffffffffff16815260200190815260200160002060050160009054906101000a900460ff16611fc7576040517f08c379a0000000000000000000000000000000000000000000000000000000008152600401611fbe90612eb6565b60405180910390fd5b3373ffffffffffffffffffffffffffffffffffffffff16600460008473ffffffffffffffffffffffffffffffffffffffff1673ffffffffffffffffffffffffffffffffffffffff16815260200190815260200160002060010160009054906101000a900473ffffffffffffffffffffffffffffffffffffffff1673ffffffffffffffffffffffffffffffffffffffff1614612097576040517f08c379a000000000000000000000000000000000000000000000000000000000815260040161208e90612f96565b60405180910390fd5b60001515600960008473ffffffffffffffffffffffffffffffffffffffff1673ffffffffffffffffffffffffffffffffffffffff16815260200190815260200160002060070160019054906101000a900460ff1615151461212d576040517f08c379a000000000000000000000000000000000000000000000000000000000815260040161212490612ed6565b60405180910390fd5b6000604051806080016040528060085481526020018473ffffffffffffffffffffffffffffffffffffffff1681526020018381526020016000600181111561219e577f4e487b7100000000000000000000000000000000000000000000000000000000600052602160045260246000fd5b81525090506001600860008282546121b69190613286565b92505081905550600a8190806001815401808255809150506001900390600052602060002090600402016000909190919091506000820151816000015560208201518160010160006101000a81548173ffffffffffffffffffffffffffffffffffffffff021916908373ffffffffffffffffffffffffffffffffffffffff1602179055506040820151816002015560608201518160030160006101000a81548160ff02191690836001811115612295577f4e487b7100000000000000000000000000000000000000000000000000000000600052602160045260246000fd5b0217905550505060078160400151815481106122da577f4e487b7100000000000000000000000000000000000000000000000000000000600052603260045260246000fd5b906000526020600020906008020160096000836020015173ffffffffffffffffffffffffffffffffffffffff1673ffffffffffffffffffffffffffffffffffffffff168152602001908152602001600020600082015481600001556001820160009054906101000a900473ffffffffffffffffffffffffffffffffffffffff168160010160006101000a81548173ffffffffffffffffffffffffffffffffffffffff021916908373ffffffffffffffffffffffffffffffffffffffff16021790555060028201816002019080546123b0906134a3565b6123bb929190612565565b5060038201816003019080546123d0906134a3565b6123db929190612565565b506004820154816004015560058201548160050155600682015481600601556007820160009054906101000a900460ff168160070160006101000a81548160ff02191690836001811115612458577f4e487b7100000000000000000000000000000000000000000000000000000000600052602160045260246000fd5b02179055506007820160019054906101000a900460ff168160070160016101000a81548160ff0219169083151502179055509050507f5dcf42a3f255a774129f33b74d7ccdbbca71b065fe4b4c167e884c08ab355baa81600001518260200151836040015184606001516040516124d29493929190613056565b60405180910390a1505050565b8280546124eb906134a3565b90600052602060002090601f01602090048101928261250d5760008555612554565b82601f1061252657805160ff1916838001178555612554565b82800160010185558215612554579182015b82811115612553578251825591602001919060010190612538565b5b50905061256191906125f2565b5090565b828054612571906134a3565b90600052602060002090601f01602090048101928261259357600085556125e1565b82601f106125a457805485556125e1565b828001600101855582156125e157600052602060002091601f016020900482015b828111156125e05782548255916001019190600101906125c5565b5b5090506125ee91906125f2565b5090565b5b8082111561260b5760008160009055506001016125f3565b5090565b600061262261261d84613239565b613214565b90508281526020810184848401111561263a57600080fd5b612645848285613461565b509392505050565b60008135905061265c816138ab565b92915050565b600081359050612671816138c2565b92915050565b600081519050612686816138d9565b92915050565b600082601f83011261269d57600080fd5b81356126ad84826020860161260f565b91505092915050565b6000813590506126c5816138f0565b92915050565b6000815190506126da816138f0565b92915050565b6000815190506126ef81613907565b92915050565b60006020828403121561270757600080fd5b60006127158482850161264d565b91505092915050565b60008060006060848603121561273357600080fd5b600061274186828701612662565b935050602084013567ffffffffffffffff81111561275e57600080fd5b61276a8682870161268c565b925050604084013567ffffffffffffffff81111561278757600080fd5b6127938682870161268c565b9150509250925092565b600080604083850312156127b057600080fd5b60006127be85828601612662565b92505060206127cf858286016126b6565b9150509250929050565b600080604083850312156127ec57600080fd5b600083013567ffffffffffffffff81111561280657600080fd5b6128128582860161268c565b925050602083013567ffffffffffffffff81111561282f57600080fd5b61283b8582860161268c565b9150509250929050565b6000806000806080858703121561285b57600080fd5b600085013567ffffffffffffffff81111561287557600080fd5b6128818782880161268c565b945050602085013567ffffffffffffffff81111561289e57600080fd5b6128aa8782880161268c565b935050604085013567ffffffffffffffff8111156128c757600080fd5b6128d38782880161268c565b925050606085013567ffffffffffffffff8111156128f057600080fd5b6128fc8782880161268c565b91505092959194509250565b6000806000806080858703121561291e57600080fd5b600085013567ffffffffffffffff81111561293857600080fd5b6129448782880161268c565b945050602085013567ffffffffffffffff81111561296157600080fd5b61296d8782880161268c565b935050604061297e878288016126b6565b925050606061298f878288016126b6565b91505092959194509250565b6000602082840312156129ad57600080fd5b60006129bb848285016126b6565b91505092915050565b600080600080600060a086880312156129dc57600080fd5b60006129ea888289016126e0565b95505060206129fb88828901612677565b9450506040612a0c888289016126cb565b9350506060612a1d888289016126cb565b9250506080612a2e888289016126e0565b9150509295509295909350565b612a4481613407565b82525050565b612a5381613379565b82525050565b612a6281613367565b82525050565b612a718161338b565b82525050565b612a8081613419565b82525050565b612a8f8161342b565b82525050565b6000612aa08261326a565b612aaa8185613275565b9350612aba818560208601613470565b612ac3816135f1565b840191505092915050565b6000612adb601983613275565b9150612ae682613602565b602082019050919050565b6000612afe602783613275565b9150612b098261362b565b604082019050919050565b6000612b21602283613275565b9150612b2c8261367a565b604082019050919050565b6000612b44602283613275565b9150612b4f826136c9565b604082019050919050565b6000612b67602483613275565b9150612b7282613718565b604082019050919050565b6000612b8a601183613275565b9150612b9582613767565b602082019050919050565b6000612bad601483613275565b9150612bb882613790565b602082019050919050565b6000612bd0602e83613275565b9150612bdb826137b9565b604082019050919050565b6000612bf3601b83613275565b9150612bfe82613808565b602082019050919050565b6000612c16601683613275565b9150612c2182613831565b602082019050919050565b6000612c39601483613275565b9150612c448261385a565b602082019050919050565b612c58816133e7565b82525050565b6000608082019050612c736000830187612a59565b612c806020830186612a59565b8181036040830152612c928185612a95565b90508181036060830152612ca68184612a95565b905095945050505050565b600060a082019050612cc66000830188612a59565b612cd36020830187612a59565b8181036040830152612ce58186612a95565b90508181036060830152612cf98185612a95565b9050612d086080830184612a68565b9695505050505050565b6000606082019050612d276000830186612a59565b8181036020830152612d398185612a95565b90508181036040830152612d4d8184612a95565b9050949350505050565b6000608082019050612d6c6000830187612a59565b8181036020830152612d7e8186612a95565b90508181036040830152612d928185612a95565b9050612da16060830184612a68565b95945050505050565b600060a082019050612dbf6000830188612a59565b8181036020830152612dd18187612a95565b90508181036040830152612de58186612a95565b90508181036060830152612df98185612a95565b90508181036080830152612e0d8184612a95565b90509695505050505050565b600060c082019050612e2e6000830189612a59565b8181036020830152612e408188612a95565b90508181036040830152612e548187612a95565b90508181036060830152612e688186612a95565b90508181036080830152612e7c8185612a95565b9050612e8b60a0830184612a68565b979650505050505050565b60006020820190508181036000830152612eaf81612ace565b9050919050565b60006020820190508181036000830152612ecf81612af1565b9050919050565b60006020820190508181036000830152612eef81612b14565b9050919050565b60006020820190508181036000830152612f0f81612b37565b9050919050565b60006020820190508181036000830152612f2f81612b5a565b9050919050565b60006020820190508181036000830152612f4f81612b7d565b9050919050565b60006020820190508181036000830152612f6f81612ba0565b9050919050565b60006020820190508181036000830152612f8f81612bc3565b9050919050565b60006020820190508181036000830152612faf81612be6565b9050919050565b60006020820190508181036000830152612fcf81612c09565b9050919050565b60006020820190508181036000830152612fef81612c2c565b9050919050565b600060208201905061300b6000830184612c4f565b92915050565b60006080820190506130266000830187612c4f565b6130336020830186612a4a565b6130406040830185612c4f565b61304d6060830184612a86565b95945050505050565b600060808201905061306b6000830187612c4f565b6130786020830186612a3b565b6130856040830185612c4f565b6130926060830184612a86565b95945050505050565b6000610100820190506130b1600083018b612c4f565b6130be602083018a612a59565b81810360408301526130d08189612a95565b905081810360608301526130e48188612a95565b90506130f36080830187612c4f565b61310060a0830186612c4f565b61310d60c0830185612c4f565b61311a60e0830184612a77565b9998505050505050505050565b60006101208201905061313d600083018c612c4f565b61314a602083018b612a59565b818103604083015261315c818a612a95565b905081810360608301526131708189612a95565b905061317f6080830188612c4f565b61318c60a0830187612c4f565b61319960c0830186612c4f565b6131a660e0830185612a77565b6131b4610100830184612a68565b9a9950505050505050505050565b60006040820190506131d76000830185612c4f565b6131e46020830184612a77565b9392505050565b60006040820190506132006000830185612c4f565b61320d6020830184612a86565b9392505050565b600061321e61322f565b905061322a82826134d5565b919050565b6000604051905090565b600067ffffffffffffffff821115613254576132536135c2565b5b61325d826135f1565b9050602081019050919050565b600081519050919050565b600082825260208201905092915050565b6000613291826133e7565b915061329c836133e7565b9250827fffffffffffffffffffffffffffffffffffffffffffffffffffffffffffffffff038211156132d1576132d0613506565b5b828201905092915050565b60006132e7826133e7565b91506132f2836133e7565b92508261330257613301613535565b5b828204905092915050565b6000613318826133e7565b9150613323836133e7565b9250817fffffffffffffffffffffffffffffffffffffffffffffffffffffffffffffffff048311821515161561335c5761335b613506565b5b828202905092915050565b6000613372826133c7565b9050919050565b6000613384826133c7565b9050919050565b60008115159050919050565b60008190506133a582613883565b919050565b60008190506133b882613897565b919050565b6000819050919050565b600073ffffffffffffffffffffffffffffffffffffffff82169050919050565b6000819050919050565b600069ffffffffffffffffffff82169050919050565b60006134128261343d565b9050919050565b600061342482613397565b9050919050565b6000613436826133aa565b9050919050565b60006134488261344f565b9050919050565b600061345a826133c7565b9050919050565b82818337600083830152505050565b60005b8381101561348e578082015181840152602081019050613473565b8381111561349d576000848401525b50505050565b600060028204905060018216806134bb57607f821691505b602082108114156134cf576134ce613593565b5b50919050565b6134de826135f1565b810181811067ffffffffffffffff821117156134fd576134fc6135c2565b5b80604052505050565b7f4e487b7100000000000000000000000000000000000000000000000000000000600052601160045260246000fd5b7f4e487b7100000000000000000000000000000000000000000000000000000000600052601260045260246000fd5b7f4e487b7100000000000000000000000000000000000000000000000000000000600052602160045260246000fd5b7f4e487b7100000000000000000000000000000000000000000000000000000000600052602260045260246000fd5b7f4e487b7100000000000000000000000000000000000000000000000000000000600052604160045260246000fd5b6000601f19601f8301169050919050565b7f596f7520646f206e6f74206f776e2074686973206772616e7400000000000000600082015250565b7f596f752068617665206e6f74207265676973746572656420617320616e20617060008201527f706c6963616e7400000000000000000000000000000000000000000000000000602082015250565b7f50726f6a656374206973206e6f7420617661696c61626c6520666f722067726160008201527f6e74000000000000000000000000000000000000000000000000000000000000602082015250565b7f436c6f73696e672064617465206d75737420626520696e20746865206675747560008201527f7265000000000000000000000000000000000000000000000000000000000000602082015250565b7f596f752068617665206e6f74207265676973746572656420617320612067726160008201527f6e746f7200000000000000000000000000000000000000000000000000000000602082015250565b7f4772616e74206861732065787069726564000000000000000000000000000000600082015250565b7f56616c756520646f6573206e6f74206d61746368000000000000000000000000600082015250565b7f596f752063616e6e6f74207265736f6c766520616e20616c726561647920726560008201527f736f6c7665642072657175657374000000000000000000000000000000000000602082015250565b7f596f7520646f206e6f74206f776e20746869732070726f6a6563740000000000600082015250565b7f4164647265737320686173206265656e2074616b656e00000000000000000000600082015250565b7f4772616e7420646f6573206e6f74206578697374000000000000000000000000600082015250565b6002811061389457613893613564565b5b50565b600281106138a8576138a7613564565b5b50565b6138b481613367565b81146138bf57600080fd5b50565b6138cb81613379565b81146138d657600080fd5b50565b6138e2816133bd565b81146138ed57600080fd5b50565b6138f9816133e7565b811461390457600080fd5b50565b613910816133f1565b811461391b57600080fd5b5056fea2646970667358221220bae4ad7d5601c2276e52013f6c41b9e64a4f424a6db7899055c1d84aedc7492664736f6c63430008020033",
  "immutableReferences": {},
  "source": "// SPDX-License-Identifier: MIT\npragma solidity >=0.7.0 <0.9.0;\n\nimport \"@chainlink/contracts/src/v0.6/interfaces/AggregatorV3Interface.sol\";\n\ncontract GovTrack {\n    AggregatorV3Interface internal priceFeed;\n    uint256 priceFeedPrecision = 100000000; // 1e8\n    uint256 weiPrecision = 1000000000000000000; // 1e18\n    \n    constructor(address oracleAddress) {\n        priceFeed = AggregatorV3Interface(oracleAddress);\n    }\n    \n    struct Applicant {\n        address id;\n        string name;\n        string phoneNumber;\n        string emailAddress;\n        string physicalAddress;\n        bool isRegistered;\n    }\n    mapping(address => Applicant) public addressToApplicant;\n    event NewApplicant(address id, string name, string phoneNumber, string emailAddress, string physicalAddress);\n    \n    struct Project {\n        address id;\n        address owner;\n        string name;\n        string description;\n        bool isRegistered;\n    }\n    mapping(address => Project) public addressToProject;\n    event NewProject(address id, address owner, string name, string description);\n    \n    struct Grantor {\n        address id;\n        string agencyName;\n        string agencyCode;\n        bool isRegistered;\n    }\n    mapping(address => Grantor) public addressToGrantor;\n    event NewGrantor(address id, string agencyName, string agencyCode);\n    \n    struct Grant {\n        uint256 id;\n        address grantor;\n        string name;\n        string description;\n        uint256 amountInWei;\n        uint createdAt;\n        uint deadlineTimestamp;\n        GrantStatus status;\n        bool isRegistered;\n    }\n    uint256 grantCounter;\n    Grant[] public grants;\n    event NewGrant(uint256 id, address grantor, string name, string description, uint256 amountInWei, uint createdAt, uint deadlineTimeStamp, GrantStatus grantStatus);\n    event UpdateGrant(uint256 id, GrantStatus status);\n    \n    struct GrantRequest {\n        uint256 id;\n        address payable project;\n        uint256 grantId;\n        RequestStatus status;\n    }\n    uint256 requestCounter;\n    mapping(address => Grant) projectToGrant;\n    GrantRequest[] public requests;\n\n    event NewGrantRequest(uint256 id, address project, uint256 grantId, RequestStatus status);\n    event UpdateGrantRequest(uint256 id, RequestStatus status);\n            \n    \n    enum RequestStatus {\n        Created,\n        Approved\n    }\n    \n    enum GrantStatus {\n        Open,\n        Closed\n    }\n\n    function registerAsApplicant(string memory _name, string memory _phoneNumber, string memory _emailAddress, string memory _physicalAddress) public addressNotTaken(msg.sender) {        \n        Applicant memory newApplicant = Applicant({\n            id: msg.sender,\n            name: _name,\n            phoneNumber: _phoneNumber,\n            emailAddress: _emailAddress,\n            physicalAddress: _physicalAddress,\n            isRegistered: true\n        });\n        addressToApplicant[newApplicant.id] = newApplicant;\n        emit NewApplicant(\n            newApplicant.id, \n            newApplicant.name, \n            newApplicant.phoneNumber,\n            newApplicant.emailAddress,\n            newApplicant.physicalAddress);\n    }\n    \n    function registerAsGrantor(string memory _agencyName, string memory _agencyCode) public addressNotTaken(msg.sender) {        \n        Grantor memory newGrantor = Grantor({\n            id: msg.sender,\n            agencyName: _agencyName,\n            agencyCode: _agencyCode,\n            isRegistered: true\n        });\n        addressToGrantor[newGrantor.id] = newGrantor;\n        emit NewGrantor(newGrantor.id, newGrantor.agencyName, newGrantor.agencyCode);\n    }\n\n    function createProject(address payable _project, string memory _name, string memory _description) public addressNotTaken(_project){\n        Project memory newProject = Project({\n            id: _project,\n            owner: msg.sender,\n            name: _name,\n            description: _description,\n            isRegistered: true\n        });\n        addressToProject[_project] = newProject;\n        emit NewProject(newProject.id, newProject.owner, newProject.name, newProject.description);\n    }\n\n    function createGrant(string memory _name, string memory _description, uint256 _amountInUsd, uint _deadlineTimestamp) public payable {\n        require(addressToGrantor[msg.sender].isRegistered, \"You have not registered as a grantor\");\n        require(_deadlineTimestamp > block.timestamp, \"Closing date must be in the future\");\n        require(msg.value >= usdToWei(_amountInUsd), \"Value does not match\");\n        \n        Grant memory newGrant = Grant({\n            id: grantCounter,\n            grantor: msg.sender,\n            name: _name,\n            description: _description,\n            amountInWei: msg.value,\n            createdAt: block.timestamp,\n            deadlineTimestamp: _deadlineTimestamp,\n            status: GrantStatus.Open,\n            isRegistered: true\n        });\n        grantCounter+=1;\n        grants.push(newGrant);\n        emit NewGrant(\n            newGrant.id, \n            newGrant.grantor, \n            newGrant.name, \n            newGrant.description,\n            newGrant.amountInWei,\n            newGrant.createdAt,\n            newGrant.deadlineTimestamp,\n            newGrant.status);\n    }\n    \n    function requestGrant(address payable _project, uint256 _grantId) public {\n        require(grants[_grantId].isRegistered, \"Grant does not exist\");\n        require(block.timestamp < grants[_grantId].deadlineTimestamp, \"Grant has expired\");\n        require(addressToApplicant[msg.sender].isRegistered, \"You have not registered as an applicant\");\n        require(addressToProject[_project].owner == msg.sender, \"You do not own this project\");\n\n        // Kind of a hack. To make sure a project can register for one grant only\n        // When it's not registered to any, the Grant in the mapping will have all values at default\n        require(projectToGrant[_project].isRegistered == false, \"Project is not available for grant\");\n        \n        GrantRequest memory newGrantRequest = GrantRequest({\n            id: requestCounter,\n            project: _project,\n            grantId: _grantId,\n            status: RequestStatus.Created\n        });\n        requestCounter += 1;\n        requests.push(newGrantRequest);\n        projectToGrant[newGrantRequest.project] = grants[newGrantRequest.grantId];\n\n        emit NewGrantRequest(newGrantRequest.id, newGrantRequest.project, newGrantRequest.grantId, newGrantRequest.status);\n    }\n    \n    function approveRequest(uint256 _requestId) public {\n        GrantRequest storage request = requests[_requestId];\n        Grant storage grant = grants[requests[_requestId].grantId];\n\n        require(request.status == RequestStatus.Created, \"You cannot resolve an already resolved request\");\n        require(addressToGrantor[msg.sender].isRegistered, \"You have not registered as a grantor\");\n        require(grant.grantor == msg.sender, \"You do not own this grant\");\n        \n        // Generally we don't approve a project when not everybody has applied\n        // Uncomment this rule when deploying to production\n        // require(grant.deadlineTimestamp < block.timestamp, \"Grant has not reached deadline\");\n         \n        request.project.transfer(grant.amountInWei);\n        request.status = RequestStatus.Approved;\n        grant.status = GrantStatus.Closed;\n        \n        emit UpdateGrantRequest(request.id, request.status);\n        emit UpdateGrant(grant.id, grant.status);\n    }\n    \n    function getUsdPerEth() public view returns (uint256) {\n        (, int price, , , ) = priceFeed.latestRoundData();\n        return uint256(price);\n    }\n\n    function usdToWei(uint256 _amountInUsd) public view returns(uint256) {\n        uint256 usdPerEth = getUsdPerEth();\n        \n        return _amountInUsd * priceFeedPrecision * weiPrecision / usdPerEth;\n    }\n    \n    modifier isGrantOwner(uint256 _grantId) {\n        Grant storage grant = grants[_grantId];\n        require(grant.grantor == msg.sender, \"You do not own this grant\");\n        _;\n    }\n\n    modifier addressNotTaken(address _address) {\n        require(!addressToApplicant[_address].isRegistered, \"Address has been taken\");\n        require(!addressToGrantor[_address].isRegistered, \"Address has been taken\");\n        require(!addressToProject[_address].isRegistered, \"Address has been taken\");\n        _;\n    }\n}",
  "sourcePath": "/home/kevin/govtrack/contracts/GovTrack.sol",
  "compiler": {
    "name": "solc",
    "version": "0.8.2+commit.661d1103.Emscripten.clang"
  },
  "schemaVersion": "3.3.4",
  "updatedAt": "2021-04-09T05:48:19.546Z",
  "networkType": "ethereum",
  "devdoc": {
    "kind": "dev",
    "methods": {},
    "version": 1
  },
  "userdoc": {
    "kind": "user",
    "methods": {},
    "version": 1
  }
}