{
  "contractName": "GovTrack",
  "abi": [
    {
      "inputs": [],
      "stateMutability": "nonpayable",
      "type": "constructor"
    },
    {
      "anonymous": false,
      "inputs": [
        {
          "indexed": false,
          "internalType": "address",
          "name": "applicant",
          "type": "address"
        },
        {
          "indexed": false,
          "internalType": "string",
          "name": "name",
          "type": "string"
        }
      ],
      "name": "NewApplicant",
      "type": "event"
    },
    {
      "anonymous": false,
      "inputs": [
        {
          "indexed": false,
          "internalType": "address",
          "name": "grantor",
          "type": "address"
        },
        {
          "indexed": false,
          "internalType": "uint256",
          "name": "id",
          "type": "uint256"
        },
        {
          "indexed": false,
          "internalType": "string",
          "name": "name",
          "type": "string"
        },
        {
          "indexed": false,
          "internalType": "uint256",
          "name": "amountAvailable",
          "type": "uint256"
        }
      ],
      "name": "NewGrant",
      "type": "event"
    },
    {
      "anonymous": false,
      "inputs": [
        {
          "indexed": false,
          "internalType": "uint256",
          "name": "id",
          "type": "uint256"
        },
        {
          "indexed": false,
          "internalType": "address",
          "name": "project",
          "type": "address"
        },
        {
          "indexed": false,
          "internalType": "uint256",
          "name": "grantId",
          "type": "uint256"
        },
        {
          "indexed": false,
          "internalType": "uint256",
          "name": "amountInUsd",
          "type": "uint256"
        }
      ],
      "name": "NewGrantRequest",
      "type": "event"
    },
    {
      "anonymous": false,
      "inputs": [
        {
          "indexed": false,
          "internalType": "address",
          "name": "grantor",
          "type": "address"
        },
        {
          "indexed": false,
          "internalType": "string",
          "name": "name",
          "type": "string"
        }
      ],
      "name": "NewGrantor",
      "type": "event"
    },
    {
      "anonymous": false,
      "inputs": [
        {
          "indexed": false,
          "internalType": "address",
          "name": "owner",
          "type": "address"
        },
        {
          "indexed": false,
          "internalType": "address",
          "name": "project",
          "type": "address"
        },
        {
          "indexed": false,
          "internalType": "string",
          "name": "name",
          "type": "string"
        }
      ],
      "name": "NewProject",
      "type": "event"
    },
    {
      "anonymous": false,
      "inputs": [
        {
          "indexed": false,
          "internalType": "uint256",
          "name": "id",
          "type": "uint256"
        },
        {
          "indexed": false,
          "internalType": "uint256",
          "name": "amountAvailable",
          "type": "uint256"
        },
        {
          "indexed": false,
          "internalType": "enum GovTrack.GrantStatus",
          "name": "status",
          "type": "uint8"
        }
      ],
      "name": "UpdateGrant",
      "type": "event"
    },
    {
      "anonymous": false,
      "inputs": [
        {
          "indexed": false,
          "internalType": "uint256",
          "name": "id",
          "type": "uint256"
        },
        {
          "indexed": false,
          "internalType": "enum GovTrack.RequestStatus",
          "name": "status",
          "type": "uint8"
        }
      ],
      "name": "UpdateGrantRequest",
      "type": "event"
    },
    {
      "inputs": [
        {
          "internalType": "address",
          "name": "",
          "type": "address"
        }
      ],
      "name": "addressToApplicant",
      "outputs": [
        {
          "internalType": "address",
          "name": "applicant",
          "type": "address"
        },
        {
          "internalType": "string",
          "name": "name",
          "type": "string"
        },
        {
          "internalType": "bool",
          "name": "isRegistered",
          "type": "bool"
        }
      ],
      "stateMutability": "view",
      "type": "function"
    },
    {
      "inputs": [
        {
          "internalType": "address",
          "name": "",
          "type": "address"
        }
      ],
      "name": "addressToGrantor",
      "outputs": [
        {
          "internalType": "address",
          "name": "grantor",
          "type": "address"
        },
        {
          "internalType": "string",
          "name": "name",
          "type": "string"
        },
        {
          "internalType": "bool",
          "name": "isRegistered",
          "type": "bool"
        }
      ],
      "stateMutability": "view",
      "type": "function"
    },
    {
      "inputs": [
        {
          "internalType": "address",
          "name": "",
          "type": "address"
        }
      ],
      "name": "addressToProject",
      "outputs": [
        {
          "internalType": "address",
          "name": "owner",
          "type": "address"
        },
        {
          "internalType": "address",
          "name": "project",
          "type": "address"
        },
        {
          "internalType": "string",
          "name": "name",
          "type": "string"
        },
        {
          "internalType": "bool",
          "name": "isRegistered",
          "type": "bool"
        }
      ],
      "stateMutability": "view",
      "type": "function"
    },
    {
      "inputs": [
        {
          "internalType": "uint256",
          "name": "",
          "type": "uint256"
        }
      ],
      "name": "requests",
      "outputs": [
        {
          "internalType": "uint256",
          "name": "id",
          "type": "uint256"
        },
        {
          "internalType": "address payable",
          "name": "project",
          "type": "address"
        },
        {
          "internalType": "uint256",
          "name": "grantId",
          "type": "uint256"
        },
        {
          "internalType": "uint256",
          "name": "amountInUsd",
          "type": "uint256"
        },
        {
          "internalType": "enum GovTrack.RequestStatus",
          "name": "status",
          "type": "uint8"
        }
      ],
      "stateMutability": "view",
      "type": "function"
    },
    {
      "inputs": [],
      "name": "getAllGrants",
      "outputs": [
        {
          "components": [
            {
              "internalType": "address",
              "name": "grantor",
              "type": "address"
            },
            {
              "internalType": "uint256",
              "name": "id",
              "type": "uint256"
            },
            {
              "internalType": "string",
              "name": "name",
              "type": "string"
            },
            {
              "internalType": "uint256",
              "name": "amountAvailable",
              "type": "uint256"
            },
            {
              "internalType": "enum GovTrack.GrantStatus",
              "name": "status",
              "type": "uint8"
            },
            {
              "internalType": "bool",
              "name": "isRegistered",
              "type": "bool"
            }
          ],
          "internalType": "struct GovTrack.Grant[]",
          "name": "",
          "type": "tuple[]"
        }
      ],
      "stateMutability": "view",
      "type": "function"
    },
    {
      "inputs": [
        {
          "internalType": "string",
          "name": "_name",
          "type": "string"
        }
      ],
      "name": "registerAsApplicant",
      "outputs": [],
      "stateMutability": "nonpayable",
      "type": "function"
    },
    {
      "inputs": [
        {
          "internalType": "string",
          "name": "_name",
          "type": "string"
        }
      ],
      "name": "registerAsGrantor",
      "outputs": [],
      "stateMutability": "nonpayable",
      "type": "function"
    },
    {
      "inputs": [
        {
          "internalType": "address payable",
          "name": "_project",
          "type": "address"
        },
        {
          "internalType": "string",
          "name": "_name",
          "type": "string"
        }
      ],
      "name": "createProject",
      "outputs": [],
      "stateMutability": "nonpayable",
      "type": "function"
    },
    {
      "inputs": [
        {
          "internalType": "string",
          "name": "_name",
          "type": "string"
        },
        {
          "internalType": "uint256",
          "name": "_amountInUsd",
          "type": "uint256"
        }
      ],
      "name": "createGrant",
      "outputs": [],
      "stateMutability": "payable",
      "type": "function"
    },
    {
      "inputs": [
        {
          "internalType": "address payable",
          "name": "_project",
          "type": "address"
        },
        {
          "internalType": "uint256",
          "name": "_grantId",
          "type": "uint256"
        },
        {
          "internalType": "uint256",
          "name": "_amountInUsd",
          "type": "uint256"
        }
      ],
      "name": "requestGrant",
      "outputs": [],
      "stateMutability": "nonpayable",
      "type": "function"
    },
    {
      "inputs": [
        {
          "internalType": "uint256",
          "name": "_requestId",
          "type": "uint256"
        },
        {
          "internalType": "bool",
          "name": "isApproved",
          "type": "bool"
        }
      ],
      "name": "resolveRequest",
      "outputs": [],
      "stateMutability": "nonpayable",
      "type": "function"
    },
    {
      "inputs": [
        {
          "internalType": "uint256",
          "name": "_grantId",
          "type": "uint256"
        }
      ],
      "name": "closeGrant",
      "outputs": [],
      "stateMutability": "nonpayable",
      "type": "function"
    }
  ],
  "bytecode": "0x60806040526305f5e100600155670de0b6b3a764000060025534801561002457600080fd5b50739326bfa02add2366b30bacb125260af6410313316000806101000a81548173ffffffffffffffffffffffffffffffffffffffff021916908373ffffffffffffffffffffffffffffffffffffffff160217905550612f6f806100886000396000f3fe6080604052600436106100a75760003560e01c8063a1cd6df611610064578063a1cd6df6146101fd578063ab575ce814610219578063b2eef67414610242578063c5cca3341461026b578063d9591eec14610294578063fecfe771146102bd576100a7565b80630fa5e121146100ac5780631827d503146100eb5780631864ccd3146101145780635bc4675c1461015357806381d12c58146101935780638aceaa89146101d4575b600080fd5b3480156100b857600080fd5b506100d360048036038101906100ce9190611e61565b6102e8565b6040516100e2939291906124df565b60405180910390f35b3480156100f757600080fd5b50610112600480360381019061010d9190611ede565b6103c7565b005b34801561012057600080fd5b5061013b60048036038101906101369190611e61565b610790565b60405161014a939291906124df565b60405180910390f35b34801561015f57600080fd5b5061017a60048036038101906101759190611e61565b61086f565b60405161018a9493929190612463565b60405180910390f35b34801561019f57600080fd5b506101ba60048036038101906101b59190611fc2565b610974565b6040516101cb959493929190612710565b60405180910390f35b3480156101e057600080fd5b506101fb60048036038101906101f69190611f2d565b6109e7565b005b61021760048036038101906102129190611f6e565b610bbf565b005b34801561022557600080fd5b50610240600480360381019061023b9190611feb565b610ea6565b005b34801561024e57600080fd5b5061026960048036038101906102649190611f2d565b611360565b005b34801561027757600080fd5b50610292600480360381019061028d9190611e8a565b611538565b005b3480156102a057600080fd5b506102bb60048036038101906102b69190611fc2565b611805565b005b3480156102c957600080fd5b506102d26119dd565b6040516102df9190612569565b60405180910390f35b60036020528060005260406000206000915090508060000160009054906101000a900473ffffffffffffffffffffffffffffffffffffffff169080600101805461033190612ad0565b80601f016020809104026020016040519081016040528092919081815260200182805461035d90612ad0565b80156103aa5780601f1061037f576101008083540402835291602001916103aa565b820191906000526020600020905b81548152906001019060200180831161038d57829003601f168201915b5050505050908060020160009054906101000a900460ff16905083565b60078281548110610401577f4e487b7100000000000000000000000000000000000000000000000000000000600052603260045260246000fd5b906000526020600020906005020160040160019054906101000a900460ff1661045f576040517f08c379a0000000000000000000000000000000000000000000000000000000008152600401610456906126ab565b60405180910390fd5b600360003373ffffffffffffffffffffffffffffffffffffffff1673ffffffffffffffffffffffffffffffffffffffff16815260200190815260200160002060020160009054906101000a900460ff166104ee576040517f08c379a00000000000000000000000000000000000000000000000000000000081526004016104e5906125ab565b60405180910390fd5b3373ffffffffffffffffffffffffffffffffffffffff16600460008573ffffffffffffffffffffffffffffffffffffffff1673ffffffffffffffffffffffffffffffffffffffff16815260200190815260200160002060000160009054906101000a900473ffffffffffffffffffffffffffffffffffffffff1673ffffffffffffffffffffffffffffffffffffffff16146105be576040517f08c379a00000000000000000000000000000000000000000000000000000000081526004016105b59061268b565b60405180910390fd5b60006040518060a0016040528060085481526020018573ffffffffffffffffffffffffffffffffffffffff16815260200184815260200183815260200160006002811115610635577f4e487b7100000000000000000000000000000000000000000000000000000000600052602160045260246000fd5b815250905060016008600082825461064d919061287f565b9250508190555060098190806001815401808255809150506001900390600052602060002090600502016000909190919091506000820151816000015560208201518160010160006101000a81548173ffffffffffffffffffffffffffffffffffffffff021916908373ffffffffffffffffffffffffffffffffffffffff160217905550604082015181600201556060820151816003015560808201518160040160006101000a81548160ff02191690836002811115610736577f4e487b7100000000000000000000000000000000000000000000000000000000600052602160045260246000fd5b021790555050507f76e0c6cf2ae26d7a9392e3d66bebaa547c22ccc762ca485cbcf1dfa97b1910cc816000015182602001518360400151846060015160405161078294939291906126cb565b60405180910390a150505050565b60056020528060005260406000206000915090508060000160009054906101000a900473ffffffffffffffffffffffffffffffffffffffff16908060010180546107d990612ad0565b80601f016020809104026020016040519081016040528092919081815260200182805461080590612ad0565b80156108525780601f1061082757610100808354040283529160200191610852565b820191906000526020600020905b81548152906001019060200180831161083557829003601f168201915b5050505050908060020160009054906101000a900460ff16905083565b60046020528060005260406000206000915090508060000160009054906101000a900473ffffffffffffffffffffffffffffffffffffffff16908060010160009054906101000a900473ffffffffffffffffffffffffffffffffffffffff16908060020180546108de90612ad0565b80601f016020809104026020016040519081016040528092919081815260200182805461090a90612ad0565b80156109575780601f1061092c57610100808354040283529160200191610957565b820191906000526020600020905b81548152906001019060200180831161093a57829003601f168201915b5050505050908060030160009054906101000a900460ff16905084565b6009818154811061098457600080fd5b90600052602060002090600502016000915090508060000154908060010160009054906101000a900473ffffffffffffffffffffffffffffffffffffffff16908060020154908060030154908060040160009054906101000a900460ff16905085565b600560003373ffffffffffffffffffffffffffffffffffffffff1673ffffffffffffffffffffffffffffffffffffffff16815260200190815260200160002060020160009054906101000a900460ff1615610a77576040517f08c379a0000000000000000000000000000000000000000000000000000000008152600401610a6e906125cb565b60405180910390fd5b600060405180606001604052803373ffffffffffffffffffffffffffffffffffffffff1681526020018381526020016001151581525090508060056000836000015173ffffffffffffffffffffffffffffffffffffffff1673ffffffffffffffffffffffffffffffffffffffff16815260200190815260200160002060008201518160000160006101000a81548173ffffffffffffffffffffffffffffffffffffffff021916908373ffffffffffffffffffffffffffffffffffffffff1602179055506020820151816001019080519060200190610b56929190611cc3565b5060408201518160020160006101000a81548160ff0219169083151502179055509050507f58762a5f413bc098432cc3723511879b3b5d5b924cf44987da95b7cce7d2e63f81600001518260200151604051610bb39291906124af565b60405180910390a15050565b600560003373ffffffffffffffffffffffffffffffffffffffff1673ffffffffffffffffffffffffffffffffffffffff16815260200190815260200160002060020160009054906101000a900460ff16610c4e576040517f08c379a0000000000000000000000000000000000000000000000000000000008152600401610c45906125eb565b60405180910390fd5b610c5781611bda565b341015610c99576040517f08c379a0000000000000000000000000000000000000000000000000000000008152600401610c909061260b565b60405180910390fd5b60006040518060c001604052803373ffffffffffffffffffffffffffffffffffffffff168152602001600654815260200184815260200134815260200160006001811115610d10577f4e487b7100000000000000000000000000000000000000000000000000000000600052602160045260246000fd5b8152602001600115158152509050600160066000828254610d31919061287f565b92505081905550600781908060018154018082558091505060019003906000526020600020906005020160009091909190915060008201518160000160006101000a81548173ffffffffffffffffffffffffffffffffffffffff021916908373ffffffffffffffffffffffffffffffffffffffff160217905550602082015181600101556040820151816002019080519060200190610dd1929190611cc3565b506060820151816003015560808201518160040160006101000a81548160ff02191690836001811115610e2d577f4e487b7100000000000000000000000000000000000000000000000000000000600052602160045260246000fd5b021790555060a08201518160040160016101000a81548160ff02191690831515021790555050507fec2f9659a723534cbf7f5ac677eb5d154ffd21beb9341cc39d3b7e4fd7611aaa8160000151826020015183604001518460600151604051610e99949392919061251d565b60405180910390a1505050565b600060098381548110610ee2577f4e487b7100000000000000000000000000000000000000000000000000000000600052603260045260246000fd5b906000526020600020906005020190506000600760098581548110610f30577f4e487b7100000000000000000000000000000000000000000000000000000000600052603260045260246000fd5b90600052602060002090600502016002015481548110610f79577f4e487b7100000000000000000000000000000000000000000000000000000000600052603260045260246000fd5b9060005260206000209060050201905060006002811115610fc3577f4e487b7100000000000000000000000000000000000000000000000000000000600052602160045260246000fd5b8260040160009054906101000a900460ff16600281111561100d577f4e487b7100000000000000000000000000000000000000000000000000000000600052602160045260246000fd5b1461104d576040517f08c379a00000000000000000000000000000000000000000000000000000000081526004016110449061266b565b60405180910390fd5b600560003373ffffffffffffffffffffffffffffffffffffffff1673ffffffffffffffffffffffffffffffffffffffff16815260200190815260200160002060020160009054906101000a900460ff166110dc576040517f08c379a00000000000000000000000000000000000000000000000000000000081526004016110d3906125eb565b60405180910390fd5b3373ffffffffffffffffffffffffffffffffffffffff168160000160009054906101000a900473ffffffffffffffffffffffffffffffffffffffff1673ffffffffffffffffffffffffffffffffffffffff161461116e576040517f08c379a00000000000000000000000000000000000000000000000000000000081526004016111659061258b565b60405180910390fd5b82156113065760006111838360030154611bda565b90508260010160009054906101000a900473ffffffffffffffffffffffffffffffffffffffff1673ffffffffffffffffffffffffffffffffffffffff166108fc829081150290604051600060405180830381858888f193505050501580156111ef573d6000803e3d6000fd5b5060018360040160006101000a81548160ff0219169083600281111561123e577f4e487b7100000000000000000000000000000000000000000000000000000000600052602160045260246000fd5b0217905550808260030160008282546112579190612960565b925050819055507fa9220f2c3608195a2b09d4530691a1918f9be4c9c5e41d7d0971365ed7a9d9d883600001548460040160009054906101000a900460ff166040516112a4929190612763565b60405180910390a17f51a25781871e6a164228dd0c202a8d916c5bdca7b6673b040149891cf9abe24c826001015483600301548460040160009054906101000a900460ff166040516112f89392919061278c565b60405180910390a15061135a565b60028260040160006101000a81548160ff02191690836002811115611354577f4e487b7100000000000000000000000000000000000000000000000000000000600052602160045260246000fd5b02179055505b50505050565b600360003373ffffffffffffffffffffffffffffffffffffffff1673ffffffffffffffffffffffffffffffffffffffff16815260200190815260200160002060020160009054906101000a900460ff16156113f0576040517f08c379a00000000000000000000000000000000000000000000000000000000081526004016113e79061264b565b60405180910390fd5b600060405180606001604052803373ffffffffffffffffffffffffffffffffffffffff1681526020018381526020016001151581525090508060036000836000015173ffffffffffffffffffffffffffffffffffffffff1673ffffffffffffffffffffffffffffffffffffffff16815260200190815260200160002060008201518160000160006101000a81548173ffffffffffffffffffffffffffffffffffffffff021916908373ffffffffffffffffffffffffffffffffffffffff16021790555060208201518160010190805190602001906114cf929190611cc3565b5060408201518160020160006101000a81548160ff0219169083151502179055509050507fa993b0b076c3a1ef55489be6af91b4925cbc4eb3a39a6a994ae09c39731a1d558160000151826020015160405161152c9291906124af565b60405180910390a15050565b600360003373ffffffffffffffffffffffffffffffffffffffff1673ffffffffffffffffffffffffffffffffffffffff16815260200190815260200160002060020160009054906101000a900460ff166115c7576040517f08c379a00000000000000000000000000000000000000000000000000000000081526004016115be906125ab565b60405180910390fd5b600460008373ffffffffffffffffffffffffffffffffffffffff1673ffffffffffffffffffffffffffffffffffffffff16815260200190815260200160002060030160009054906101000a900460ff1615611657576040517f08c379a000000000000000000000000000000000000000000000000000000000815260040161164e9061262b565b60405180910390fd5b600060405180608001604052803373ffffffffffffffffffffffffffffffffffffffff1681526020018473ffffffffffffffffffffffffffffffffffffffff16815260200183815260200160011515815250905080600460008573ffffffffffffffffffffffffffffffffffffffff1673ffffffffffffffffffffffffffffffffffffffff16815260200190815260200160002060008201518160000160006101000a81548173ffffffffffffffffffffffffffffffffffffffff021916908373ffffffffffffffffffffffffffffffffffffffff16021790555060208201518160010160006101000a81548173ffffffffffffffffffffffffffffffffffffffff021916908373ffffffffffffffffffffffffffffffffffffffff1602179055506040820151816002019080519060200190611795929190611cc3565b5060608201518160030160006101000a81548160ff0219169083151502179055509050507f13eca61aa586c7ed1ceee0cf84798cad0ee3126a2a7c5fe8e97ec8101f5497c98160000151826020015183604001516040516117f893929190612425565b60405180910390a1505050565b80600060078281548110611842577f4e487b7100000000000000000000000000000000000000000000000000000000600052603260045260246000fd5b906000526020600020906005020190503373ffffffffffffffffffffffffffffffffffffffff168160000160009054906101000a900473ffffffffffffffffffffffffffffffffffffffff1673ffffffffffffffffffffffffffffffffffffffff16146118e4576040517f08c379a00000000000000000000000000000000000000000000000000000000081526004016118db9061258b565b60405180910390fd5b600060078481548110611920577f4e487b7100000000000000000000000000000000000000000000000000000000600052603260045260246000fd5b9060005260206000209060050201905060018160040160006101000a81548160ff0219169083600181111561197e577f4e487b7100000000000000000000000000000000000000000000000000000000600052602160045260246000fd5b02179055507f51a25781871e6a164228dd0c202a8d916c5bdca7b6673b040149891cf9abe24c816001015482600301548360040160009054906101000a900460ff166040516119cf9392919061278c565b60405180910390a150505050565b60606007805480602002602001604051908101604052809291908181526020016000905b82821015611bd157838290600052602060002090600502016040518060c00160405290816000820160009054906101000a900473ffffffffffffffffffffffffffffffffffffffff1673ffffffffffffffffffffffffffffffffffffffff1673ffffffffffffffffffffffffffffffffffffffff16815260200160018201548152602001600282018054611a9490612ad0565b80601f0160208091040260200160405190810160405280929190818152602001828054611ac090612ad0565b8015611b0d5780601f10611ae257610100808354040283529160200191611b0d565b820191906000526020600020905b815481529060010190602001808311611af057829003601f168201915b50505050508152602001600382015481526020016004820160009054906101000a900460ff166001811115611b6b577f4e487b7100000000000000000000000000000000000000000000000000000000600052602160045260246000fd5b6001811115611ba3577f4e487b7100000000000000000000000000000000000000000000000000000000600052602160045260246000fd5b81526020016004820160019054906101000a900460ff16151515158152505081526020019060010190611a01565b50505050905090565b600080611be5611c15565b90508060025460015485611bf99190612906565b611c039190612906565b611c0d91906128d5565b915050919050565b60008060008054906101000a900473ffffffffffffffffffffffffffffffffffffffff1673ffffffffffffffffffffffffffffffffffffffff1663feaf968c6040518163ffffffff1660e01b815260040160a06040518083038186803b158015611c7e57600080fd5b505afa158015611c92573d6000803e3d6000fd5b505050506040513d601f19601f82011682018060405250810190611cb69190612027565b5050509150508091505090565b828054611ccf90612ad0565b90600052602060002090601f016020900481019282611cf15760008555611d38565b82601f10611d0a57805160ff1916838001178555611d38565b82800160010185558215611d38579182015b82811115611d37578251825591602001919060010190611d1c565b5b509050611d459190611d49565b5090565b5b80821115611d62576000816000905550600101611d4a565b5090565b6000611d79611d74846127e8565b6127c3565b905082815260208101848484011115611d9157600080fd5b611d9c848285612a8e565b509392505050565b600081359050611db381612eaf565b92915050565b600081359050611dc881612ec6565b92915050565b600081359050611ddd81612edd565b92915050565b600081519050611df281612ef4565b92915050565b600082601f830112611e0957600080fd5b8135611e19848260208601611d66565b91505092915050565b600081359050611e3181612f0b565b92915050565b600081519050611e4681612f0b565b92915050565b600081519050611e5b81612f22565b92915050565b600060208284031215611e7357600080fd5b6000611e8184828501611da4565b91505092915050565b60008060408385031215611e9d57600080fd5b6000611eab85828601611db9565b925050602083013567ffffffffffffffff811115611ec857600080fd5b611ed485828601611df8565b9150509250929050565b600080600060608486031215611ef357600080fd5b6000611f0186828701611db9565b9350506020611f1286828701611e22565b9250506040611f2386828701611e22565b9150509250925092565b600060208284031215611f3f57600080fd5b600082013567ffffffffffffffff811115611f5957600080fd5b611f6584828501611df8565b91505092915050565b60008060408385031215611f8157600080fd5b600083013567ffffffffffffffff811115611f9b57600080fd5b611fa785828601611df8565b9250506020611fb885828601611e22565b9150509250929050565b600060208284031215611fd457600080fd5b6000611fe284828501611e22565b91505092915050565b60008060408385031215611ffe57600080fd5b600061200c85828601611e22565b925050602061201d85828601611dce565b9150509250929050565b600080600080600060a0868803121561203f57600080fd5b600061204d88828901611e4c565b955050602061205e88828901611de3565b945050604061206f88828901611e37565b935050606061208088828901611e37565b925050608061209188828901611e4c565b9150509295509295909350565b60006120aa838361237e565b905092915050565b6120bb81612a34565b82525050565b6120ca816129a6565b82525050565b6120d981612994565b82525050565b6120e881612994565b82525050565b60006120f982612829565b612103818561284c565b93508360208202850161211585612819565b8060005b858110156121515784840389528151612132858261209e565b945061213d8361283f565b925060208a01995050600181019050612119565b50829750879550505050505092915050565b61216c816129b8565b82525050565b61217b816129b8565b82525050565b61218a81612a46565b82525050565b61219981612a46565b82525050565b6121a881612a58565b82525050565b60006121b982612834565b6121c3818561285d565b93506121d3818560208601612a9d565b6121dc81612c1e565b840191505092915050565b60006121f282612834565b6121fc818561286e565b935061220c818560208601612a9d565b61221581612c1e565b840191505092915050565b600061222d60198361286e565b915061223882612c2f565b602082019050919050565b600061225060278361286e565b915061225b82612c58565b604082019050919050565b600061227360238361286e565b915061227e82612ca7565b604082019050919050565b600061229660248361286e565b91506122a182612cf6565b604082019050919050565b60006122b960148361286e565b91506122c482612d45565b602082019050919050565b60006122dc601b8361286e565b91506122e782612d6e565b602082019050919050565b60006122ff60268361286e565b915061230a82612d97565b604082019050919050565b6000612322602e8361286e565b915061232d82612de6565b604082019050919050565b6000612345601b8361286e565b915061235082612e35565b602082019050919050565b600061236860148361286e565b915061237382612e5e565b602082019050919050565b600060c08301600083015161239660008601826120d0565b5060208301516123a96020860182612407565b50604083015184820360408601526123c182826121ae565b91505060608301516123d66060860182612407565b5060808301516123e96080860182612181565b5060a08301516123fc60a0860182612163565b508091505092915050565b61241081612a14565b82525050565b61241f81612a14565b82525050565b600060608201905061243a60008301866120df565b61244760208301856120df565b818103604083015261245981846121e7565b9050949350505050565b600060808201905061247860008301876120df565b61248560208301866120df565b818103604083015261249781856121e7565b90506124a66060830184612172565b95945050505050565b60006040820190506124c460008301856120df565b81810360208301526124d681846121e7565b90509392505050565b60006060820190506124f460008301866120df565b818103602083015261250681856121e7565b90506125156040830184612172565b949350505050565b600060808201905061253260008301876120df565b61253f6020830186612416565b818103604083015261255181856121e7565b90506125606060830184612416565b95945050505050565b6000602082019050818103600083015261258381846120ee565b905092915050565b600060208201905081810360008301526125a481612220565b9050919050565b600060208201905081810360008301526125c481612243565b9050919050565b600060208201905081810360008301526125e481612266565b9050919050565b6000602082019050818103600083015261260481612289565b9050919050565b60006020820190508181036000830152612624816122ac565b9050919050565b60006020820190508181036000830152612644816122cf565b9050919050565b60006020820190508181036000830152612664816122f2565b9050919050565b6000602082019050818103600083015261268481612315565b9050919050565b600060208201905081810360008301526126a481612338565b9050919050565b600060208201905081810360008301526126c48161235b565b9050919050565b60006080820190506126e06000830187612416565b6126ed60208301866120b2565b6126fa6040830185612416565b6127076060830184612416565b95945050505050565b600060a0820190506127256000830188612416565b61273260208301876120c1565b61273f6040830186612416565b61274c6060830185612416565b612759608083018461219f565b9695505050505050565b60006040820190506127786000830185612416565b612785602083018461219f565b9392505050565b60006060820190506127a16000830186612416565b6127ae6020830185612416565b6127bb6040830184612190565b949350505050565b60006127cd6127de565b90506127d98282612b02565b919050565b6000604051905090565b600067ffffffffffffffff82111561280357612802612bef565b5b61280c82612c1e565b9050602081019050919050565b6000819050602082019050919050565b600081519050919050565b600081519050919050565b6000602082019050919050565b600082825260208201905092915050565b600082825260208201905092915050565b600082825260208201905092915050565b600061288a82612a14565b915061289583612a14565b9250827fffffffffffffffffffffffffffffffffffffffffffffffffffffffffffffffff038211156128ca576128c9612b33565b5b828201905092915050565b60006128e082612a14565b91506128eb83612a14565b9250826128fb576128fa612b62565b5b828204905092915050565b600061291182612a14565b915061291c83612a14565b9250817fffffffffffffffffffffffffffffffffffffffffffffffffffffffffffffffff048311821515161561295557612954612b33565b5b828202905092915050565b600061296b82612a14565b915061297683612a14565b92508282101561298957612988612b33565b5b828203905092915050565b600061299f826129f4565b9050919050565b60006129b1826129f4565b9050919050565b60008115159050919050565b60008190506129d282612e87565b919050565b60008190506129e582612e9b565b919050565b6000819050919050565b600073ffffffffffffffffffffffffffffffffffffffff82169050919050565b6000819050919050565b600069ffffffffffffffffffff82169050919050565b6000612a3f82612a6a565b9050919050565b6000612a51826129c4565b9050919050565b6000612a63826129d7565b9050919050565b6000612a7582612a7c565b9050919050565b6000612a87826129f4565b9050919050565b82818337600083830152505050565b60005b83811015612abb578082015181840152602081019050612aa0565b83811115612aca576000848401525b50505050565b60006002820490506001821680612ae857607f821691505b60208210811415612afc57612afb612bc0565b5b50919050565b612b0b82612c1e565b810181811067ffffffffffffffff82111715612b2a57612b29612bef565b5b80604052505050565b7f4e487b7100000000000000000000000000000000000000000000000000000000600052601160045260246000fd5b7f4e487b7100000000000000000000000000000000000000000000000000000000600052601260045260246000fd5b7f4e487b7100000000000000000000000000000000000000000000000000000000600052602160045260246000fd5b7f4e487b7100000000000000000000000000000000000000000000000000000000600052602260045260246000fd5b7f4e487b7100000000000000000000000000000000000000000000000000000000600052604160045260246000fd5b6000601f19601f8301169050919050565b7f596f7520646f206e6f74206f776e2074686973206772616e7400000000000000600082015250565b7f596f752068617665206e6f74207265676973746572656420617320616e20617060008201527f706c6963616e7400000000000000000000000000000000000000000000000000602082015250565b7f596f7520616c726561647920726567697374657265642061732061206772616e60008201527f746f720000000000000000000000000000000000000000000000000000000000602082015250565b7f596f752068617665206e6f74207265676973746572656420617320612067726160008201527f6e746f7200000000000000000000000000000000000000000000000000000000602082015250565b7f56616c756520646f6573206e6f74206d61746368000000000000000000000000600082015250565b7f50726f6a65637420686173206265656e20726567697374657265640000000000600082015250565b7f596f7520616c7265616479207265676973746572656420617320616e2061707060008201527f6c6963616e740000000000000000000000000000000000000000000000000000602082015250565b7f596f752063616e6e6f74207265736f6c766520616e20616c726561647920726560008201527f736f6c7665642072657175657374000000000000000000000000000000000000602082015250565b7f596f7520646f206e6f74206f776e20746869732070726f6a6563740000000000600082015250565b7f4772616e7420646f6573206e6f74206578697374000000000000000000000000600082015250565b60028110612e9857612e97612b91565b5b50565b60038110612eac57612eab612b91565b5b50565b612eb881612994565b8114612ec357600080fd5b50565b612ecf816129a6565b8114612eda57600080fd5b50565b612ee6816129b8565b8114612ef157600080fd5b50565b612efd816129ea565b8114612f0857600080fd5b50565b612f1481612a14565b8114612f1f57600080fd5b50565b612f2b81612a1e565b8114612f3657600080fd5b5056fea2646970667358221220c5462360766fe6426389c7d51f3216adeb2adbc3516d2c08eced3cc3a8d6357164736f6c63430008020033",
  "immutableReferences": {},
  "source": "// SPDX-License-Identifier: MIT\npragma solidity >=0.7.0 <0.9.0;\n\nimport \"@chainlink/contracts/src/v0.6/interfaces/AggregatorV3Interface.sol\";\n\ncontract GovTrack {\n    AggregatorV3Interface internal priceFeed;\n    uint256 priceFeedPrecision = 100000000; // 1e8\n    uint256 weiPrecision = 1000000000000000000; // 1e18\n    \n    /**\n     * Network: Kovan\n     * Aggregator: ETH/USD\n     * Address: 0x9326BFA02ADD2366b30bacB125260Af641031331\n     */\n    constructor() {\n        priceFeed = AggregatorV3Interface(0x9326BFA02ADD2366b30bacB125260Af641031331);\n    }\n    \n    struct Applicant {\n        address applicant;\n        string name;\n        bool isRegistered;\n    }\n    mapping(address => Applicant) public addressToApplicant;\n    event NewApplicant(address applicant, string name);\n    \n    struct Project {\n        address owner;\n        address project;\n        string name;\n        bool isRegistered;\n    }\n    mapping(address => Project) public addressToProject;\n    event NewProject(address owner, address project, string name);\n    \n    struct Grantor {\n        address grantor;\n        string name;\n        bool isRegistered;\n    }\n    mapping(address => Grantor) public addressToGrantor;\n    event NewGrantor(address grantor, string name);\n    \n    struct Grant {\n        address grantor;\n        uint256 id;\n        string name;\n        uint256 amountAvailable;\n        GrantStatus status;\n        bool isRegistered;\n    }\n    uint256 grantCounter;\n    Grant[] grants;\n    event NewGrant(address grantor, uint256 id, string name, uint256 amountAvailable);\n    event UpdateGrant(uint256 id, uint256 amountAvailable, GrantStatus status);\n    \n    struct GrantRequest {\n        uint256 id;\n        address payable project;\n        uint256 grantId;\n        uint256 amountInUsd;\n        RequestStatus status;\n    }\n    uint256 requestCounter;\n    GrantRequest[] public requests;\n    event NewGrantRequest(uint256 id, address project, uint256 grantId, uint256 amountInUsd);\n    event UpdateGrantRequest(uint256 id, RequestStatus status);\n            \n    \n    enum RequestStatus {\n        Created,\n        Approved,\n        Denied\n    }\n    \n    enum GrantStatus {\n        Open,\n        Closed\n    }\n\n    function getAllGrants() public view returns(Grant[] memory) {\n        return grants;\n    }\n\n    function registerAsApplicant(string memory _name) public {\n        require(!addressToApplicant[msg.sender].isRegistered, \"You already registered as an applicant\");\n        \n        Applicant memory newApplicant = Applicant({\n            applicant: msg.sender,\n            name: _name,\n            isRegistered: true\n        });\n        addressToApplicant[newApplicant.applicant] = newApplicant;\n        emit NewApplicant(newApplicant.applicant, newApplicant.name);\n    }\n    \n    function registerAsGrantor(string memory _name) public {\n        require(!addressToGrantor[msg.sender].isRegistered, \"You already registered as a grantor\");\n        \n        Grantor memory newGrantor = Grantor({\n            grantor: msg.sender,\n            name: _name,\n            isRegistered: true\n        });\n        addressToGrantor[newGrantor.grantor] = newGrantor;\n        emit NewGrantor(newGrantor.grantor, newGrantor.name);\n    }\n\n    function createProject(address payable _project, string memory _name) public {\n        require(addressToApplicant[msg.sender].isRegistered, \"You have not registered as an applicant\");\n        require(!addressToProject[_project].isRegistered, \"Project has been registered\");\n\n        Project memory newProject = Project({\n            owner: msg.sender,\n            project: _project,\n            name: _name,\n            isRegistered: true\n        });\n        addressToProject[_project] = newProject;\n        emit NewProject(newProject.owner, newProject.project, newProject.name);\n    }\n\n    function createGrant(string memory _name, uint256 _amountInUsd) public payable {\n        require(addressToGrantor[msg.sender].isRegistered, \"You have not registered as a grantor\");\n        require(msg.value >= usdToWei(_amountInUsd), \"Value does not match\");\n        \n        Grant memory newGrant = Grant({\n            grantor: msg.sender,\n            id: grantCounter,\n            name: _name,\n            amountAvailable: msg.value,\n            status: GrantStatus.Open,\n            isRegistered: true\n        });\n        grantCounter+=1;\n        grants.push(newGrant);\n        emit NewGrant(newGrant.grantor, newGrant.id, newGrant.name, newGrant.amountAvailable);\n    }\n    \n    function requestGrant(address payable _project, uint256 _grantId, uint256 _amountInUsd) public {\n        require(grants[_grantId].isRegistered, \"Grant does not exist\");\n        require(addressToApplicant[msg.sender].isRegistered, \"You have not registered as an applicant\");\n        require(addressToProject[_project].owner == msg.sender, \"You do not own this project\");\n        \n        GrantRequest memory newGrantRequest = GrantRequest({\n            id: requestCounter,\n            project: _project,\n            grantId: _grantId,\n            amountInUsd: _amountInUsd,\n            status: RequestStatus.Created\n        });\n        requestCounter += 1;\n        requests.push(newGrantRequest);\n        emit NewGrantRequest(newGrantRequest.id, newGrantRequest.project, newGrantRequest.grantId, newGrantRequest.amountInUsd);\n    }\n    \n    function resolveRequest(uint256 _requestId, bool isApproved) public {\n        GrantRequest storage request = requests[_requestId];\n        Grant storage grant = grants[requests[_requestId].grantId];\n\n        require(request.status == RequestStatus.Created, \"You cannot resolve an already resolved request\");\n        require(addressToGrantor[msg.sender].isRegistered, \"You have not registered as a grantor\");\n        require(grant.grantor == msg.sender, \"You do not own this grant\");\n       \n        if (isApproved) {\n            uint256 amountInWei = usdToWei(request.amountInUsd);\n             \n            request.project.transfer(amountInWei);\n            request.status = RequestStatus.Approved;\n            \n            grant.amountAvailable -= amountInWei;\n            \n            emit UpdateGrantRequest(request.id, request.status);\n            emit UpdateGrant(grant.id, grant.amountAvailable, grant.status);\n        }else {\n            request.status = RequestStatus.Denied;\n        }\n    }\n    \n    function closeGrant(uint256 _grantId) isGrantOwner(_grantId) public {\n        Grant storage grant = grants[_grantId];\n        grant.status = GrantStatus.Closed;\n        \n        emit UpdateGrant(grant.id, grant.amountAvailable, grant.status);\n    }\n    \n    function getUsdPerEth() private view returns (uint256) {\n        (, int price, , , ) = priceFeed.latestRoundData();\n        return uint256(price);\n    }\n\n    function usdToWei(uint256 _amountInUsd) private view returns(uint256) {\n        uint256 usdPerEth = getUsdPerEth();\n        \n        return _amountInUsd * priceFeedPrecision * weiPrecision / usdPerEth;\n    }\n    \n    modifier isGrantOwner(uint256 _grantId) {\n        Grant storage grant = grants[_grantId];\n        require(grant.grantor == msg.sender, \"You do not own this grant\");\n        _;\n    }\n}",
  "sourcePath": "/home/kevin/govtrack/contracts/GovTrack.sol",
  "compiler": {
    "name": "solc",
    "version": "0.8.2+commit.661d1103.Emscripten.clang"
  },
  "schemaVersion": "3.3.4",
  "updatedAt": "2021-04-03T15:19:44.394Z",
  "devdoc": {
    "kind": "dev",
    "methods": {},
    "version": 1
  },
  "userdoc": {
    "kind": "user",
    "methods": {
      "constructor": {
        "notice": "Network: Kovan Aggregator: ETH/USD Address: 0x9326BFA02ADD2366b30bacB125260Af641031331"
      }
    },
    "version": 1
  }
}