{
  "contractName": "MockOracle",
  "abi": [
    {
      "inputs": [],
      "stateMutability": "nonpayable",
      "type": "constructor"
    },
    {
      "inputs": [],
      "name": "decimals",
      "outputs": [
        {
          "internalType": "uint8",
          "name": "",
          "type": "uint8"
        }
      ],
      "stateMutability": "view",
      "type": "function",
      "constant": true
    },
    {
      "inputs": [],
      "name": "description",
      "outputs": [
        {
          "internalType": "string",
          "name": "",
          "type": "string"
        }
      ],
      "stateMutability": "view",
      "type": "function",
      "constant": true
    },
    {
      "inputs": [],
      "name": "version",
      "outputs": [
        {
          "internalType": "uint256",
          "name": "",
          "type": "uint256"
        }
      ],
      "stateMutability": "view",
      "type": "function",
      "constant": true
    },
    {
      "inputs": [
        {
          "internalType": "uint80",
          "name": "_roundId",
          "type": "uint80"
        }
      ],
      "name": "getRoundData",
      "outputs": [
        {
          "internalType": "uint80",
          "name": "roundId",
          "type": "uint80"
        },
        {
          "internalType": "int256",
          "name": "answer",
          "type": "int256"
        },
        {
          "internalType": "uint256",
          "name": "startedAt",
          "type": "uint256"
        },
        {
          "internalType": "uint256",
          "name": "updatedAt",
          "type": "uint256"
        },
        {
          "internalType": "uint80",
          "name": "answeredInRound",
          "type": "uint80"
        }
      ],
      "stateMutability": "view",
      "type": "function",
      "constant": true
    },
    {
      "inputs": [],
      "name": "latestRoundData",
      "outputs": [
        {
          "internalType": "uint80",
          "name": "roundId",
          "type": "uint80"
        },
        {
          "internalType": "int256",
          "name": "answer",
          "type": "int256"
        },
        {
          "internalType": "uint256",
          "name": "startedAt",
          "type": "uint256"
        },
        {
          "internalType": "uint256",
          "name": "updatedAt",
          "type": "uint256"
        },
        {
          "internalType": "uint80",
          "name": "answeredInRound",
          "type": "uint80"
        }
      ],
      "stateMutability": "view",
      "type": "function",
      "constant": true
    }
  ],
  "bytecode": "0x608060405234801561001057600080fd5b5060008060006101000a81548160ff021916908360ff1602179055506040518060400160405280601581526020017f54776f20706c75732074776f20697320776861743f000000000000000000000081525060019080519060200190610077929190610091565b506000600281905550642e90edd000600381905550610195565b82805461009d90610134565b90600052602060002090601f0160209004810192826100bf5760008555610106565b82601f106100d857805160ff1916838001178555610106565b82800160010185558215610106579182015b828111156101055782518255916020019190600101906100ea565b5b5090506101139190610117565b5090565b5b80821115610130576000816000905550600101610118565b5090565b6000600282049050600182168061014c57607f821691505b602082108114156101605761015f610166565b5b50919050565b7f4e487b7100000000000000000000000000000000000000000000000000000000600052602260045260246000fd5b6104a7806101a46000396000f3fe608060405234801561001057600080fd5b50600436106100575760003560e01c8063313ce5671461005c57806354fd4d501461007a5780637284e416146100985780639a6fc8f5146100b6578063feaf968c146100ea575b600080fd5b61006461010c565b6040516100719190610347565b60405180910390f35b610082610122565b60405161008f91906102d9565b60405180910390f35b6100a061012c565b6040516100ad91906102b7565b60405180910390f35b6100d060048036038101906100cb9190610219565b6101be565b6040516100e19594939291906102f4565b60405180910390f35b6100f26101e2565b6040516101039594939291906102f4565b60405180910390f35b60008060009054906101000a900460ff16905090565b6000600254905090565b60606001805461013b906103e8565b80601f0160208091040260200160405190810160405280929190818152602001828054610167906103e8565b80156101b45780601f10610189576101008083540402835291602001916101b4565b820191906000526020600020905b81548152906001019060200180831161019757829003601f168201915b5050505050905090565b60008060008060008560035460008060009450945094509450945091939590929450565b6000806000806000806003546000806000945094509450945094509091929394565b6000813590506102138161045a565b92915050565b60006020828403121561022b57600080fd5b600061023984828501610204565b91505092915050565b61024b8161037e565b82525050565b600061025c82610362565b610266818561036d565b93506102768185602086016103b5565b61027f81610449565b840191505092915050565b61029381610388565b82525050565b6102a28161039f565b82525050565b6102b181610392565b82525050565b600060208201905081810360008301526102d18184610251565b905092915050565b60006020820190506102ee600083018461028a565b92915050565b600060a0820190506103096000830188610299565b6103166020830187610242565b610323604083018661028a565b610330606083018561028a565b61033d6080830184610299565b9695505050505050565b600060208201905061035c60008301846102a8565b92915050565b600081519050919050565b600082825260208201905092915050565b6000819050919050565b6000819050919050565b600060ff82169050919050565b600069ffffffffffffffffffff82169050919050565b60005b838110156103d35780820151818401526020810190506103b8565b838111156103e2576000848401525b50505050565b6000600282049050600182168061040057607f821691505b602082108114156104145761041361041a565b5b50919050565b7f4e487b7100000000000000000000000000000000000000000000000000000000600052602260045260246000fd5b6000601f19601f8301169050919050565b6104638161039f565b811461046e57600080fd5b5056fea264697066735822122099ef163330ef969f053ac5fdd7570099c78e223b15cf6aca13d39c4a9e2af1a464736f6c63430008020033",
  "immutableReferences": {},
  "source": "// SPDX-License-Identifier: MIT\npragma solidity >=0.7.0 <0.9.0;\n\nimport \"@chainlink/contracts/src/v0.6/interfaces/AggregatorV3Interface.sol\";\n\ncontract MockOracle is AggregatorV3Interface {\n    uint8 mockDecimals;\n    string mockDescription;\n    uint256 mockVersion;\n    int256 mockAnswer;\n    \n    constructor() {\n        mockDecimals = 0;\n        mockDescription = \"Two plus two is what?\";\n        mockVersion = 0;\n        mockAnswer = 2000 * 100000000;\n    }\n    \n    function decimals() override external view returns (uint8){\n        return mockDecimals;\n    }\n    \n    function description() override external view returns (string memory){\n        return mockDescription;\n    }\n    \n    function version() override external view returns (uint256){\n        return mockVersion;\n    }\n    \n    // getRoundData and latestRoundData should both raise \"No data present\"\n    // if they do not have data to report, instead of returning unset values\n    // which could be misinterpreted as actual reported values.\n    function getRoundData(uint80 _roundId) override external view returns (\n      uint80 roundId,\n      int256 answer,\n      uint256 startedAt,\n      uint256 updatedAt,\n      uint80 answeredInRound\n    ){\n        return (_roundId, mockAnswer, 0, 0, 0);\n    }\n    \n    function latestRoundData() override external view returns (\n      uint80 roundId,\n      int256 answer,\n      uint256 startedAt,\n      uint256 updatedAt,\n      uint80 answeredInRound\n    ){\n        return (0, mockAnswer, 0, 0, 0);\n    }\n}",
  "sourcePath": "/home/kevin/govtrack/contracts/MockOracle.sol",
  "compiler": {
    "name": "solc",
    "version": "0.8.2+commit.661d1103.Emscripten.clang"
  },
  "schemaVersion": "3.3.4",
  "updatedAt": "2021-04-09T05:48:19.563Z",
  "networkType": "ethereum",
  "devdoc": {
    "kind": "dev",
    "methods": {},
    "version": 1
  },
  "userdoc": {
    "kind": "user",
    "methods": {},
    "version": 1
  }
}